{
  "contracts/zkVerifiableCredentialsDBCoreVerifier.sol": {
    "Verifier": {
      "abi": [
        {
          "inputs": [
            {
              "internalType": "uint256[2]",
              "name": "a",
              "type": "uint256[2]"
            },
            {
              "internalType": "uint256[2][2]",
              "name": "b",
              "type": "uint256[2][2]"
            },
            {
              "internalType": "uint256[2]",
              "name": "c",
              "type": "uint256[2]"
            },
            {
              "internalType": "uint256[16]",
              "name": "input",
              "type": "uint256[16]"
            }
          ],
          "name": "verifyProof",
          "outputs": [
            {
              "internalType": "bool",
              "name": "r",
              "type": "bool"
            }
          ],
          "stateMutability": "view",
          "type": "function"
        }
      ],
      "evm": {
        "bytecode": {
          "linkReferences": {},
          "object": "608060405234801561001057600080fd5b50612179806100206000396000f3fe608060405234801561001057600080fd5b506004361061002b5760003560e01c8063c82febf514610030575b600080fd5b61004a60048036038101906100459190611c20565b610060565b6040516100579190611ca4565b60405180910390f35b600061006a6117f0565b60405180604001604052808760006002811061008957610088611cbf565b5b60200201518152602001876001600281106100a7576100a6611cbf565b5b6020020151815250816000018190525060405180604001604052806040518060400160405280886000600281106100e1576100e0611cbf565b5b60200201516000600281106100f9576100f8611cbf565b5b602002015181526020018860006002811061011757610116611cbf565b5b602002015160016002811061012f5761012e611cbf565b5b6020020151815250815260200160405180604001604052808860016002811061015b5761015a611cbf565b5b602002015160006002811061017357610172611cbf565b5b602002015181526020018860016002811061019157610190611cbf565b5b60200201516001600281106101a9576101a8611cbf565b5b602002015181525081525081602001819052506040518060400160405280856000600281106101db576101da611cbf565b5b60200201518152602001856001600281106101f9576101f8611cbf565b5b602002015181525081604001819052506000601067ffffffffffffffff81111561022657610225611957565b5b6040519080825280602002602001820160405280156102545781602001602082028036833780820191505090505b50905060005b60108110156102ad5784816010811061027657610275611cbf565b5b602002015182828151811061028e5761028d611cbf565b5b60200260200101818152505080806102a590611d1d565b91505061025a565b5060006102ba82846102da565b14156102cb576001925050506102d2565b6000925050505b949350505050565b6000807f30644e72e131a029b85045b68181585d2833e84879b9709143e1f593f00000019050600061030a6104cd565b9050806080015151600186516103209190611d66565b14610360576040517f08c379a000000000000000000000000000000000000000000000000000000000815260040161035790611e19565b60405180910390fd5b60006040518060400160405280600081526020016000815250905060005b865181101561044f578387828151811061039b5761039a611cbf565b5b6020026020010151106103e3576040517f08c379a00000000000000000000000000000000000000000000000000000000081526004016103da90611e85565b60405180910390fd5b61043a8261043585608001516001856103fc9190611d66565b8151811061040d5761040c611cbf565b5b60200260200101518a858151811061042857610427611cbf565b5b6020026020010151610fd7565b6110b4565b9150808061044790611d1d565b91505061037e565b5061047981836080015160008151811061046c5761046b611cbf565b5b60200260200101516110b4565b90506104af61048b86600001516111b7565b8660200151846000015185602001518587604001518b60400151896060015161125c565b6104bf57600193505050506104c7565b600093505050505b92915050565b6104d5611823565b60405180604001604052807f2d4d9aa7e302d9df41749d5507949d05dbea33fbb16c643b22f599a2be6df2e281526020017f14bedd503c37ceb061d8ec60209fe345ce89830a19230301f076caff004d19268152508160000181905250604051806040016040528060405180604001604052807f0967032fcbf776d1afc985f88877f182d38480a653f2decaa9794cbc3bf3060c81526020017f0e187847ad4c798374d0d6732bf501847dd68bc0e071241e0213bc7fc13db7ab815250815260200160405180604001604052807f304cfbd1e08a704a99f5e847d93f8c3caafddec46b7a0d379da69a4d112346a781526020017f1739c1b1a457a8c7313123d24d2f9192f896b7c63eea05a9d57f06547ad0cec88152508152508160200181905250604051806040016040528060405180604001604052807f198e9393920d483a7260bfb731fb5d25f1aa493335a9e71297e485b7aef312c281526020017f1800deef121f1e76426a00665e5c4479674322d4f75edadd46debd5cd992f6ed815250815260200160405180604001604052807f090689d0585ff075ec9e99ad690c3395bc4b313370b38ef355acdadcd122975b81526020017f12c85ea5db8c6deb4aab71808dcb408fe3d1e7690c43d37b4ce6cc0166fa7daa8152508152508160400181905250604051806040016040528060405180604001604052807f1f22bcb3bd2147b4c2b78ff3b6170cf33f4060aa67ed5699e3d81428b1d505ec81526020017f0ef4f7a0d65d65b20e72d105b3de89bd248a2bd735e954953b00dce6da11bf73815250815260200160405180604001604052807f2dc19a2ca9340dc1f7a40b04e9647a298964a63aa510cfe97cf6087f1a991e4181526020017f14bd6fda975f8e033fe54ec13da5530d7555c42ca5ef87f3442fc0b8d4e428be8152508152508160600181905250601167ffffffffffffffff81111561079c5761079b611957565b5b6040519080825280602002602001820160405280156107d557816020015b6107c261186a565b8152602001906001900390816107ba5790505b50816080018190525060405180604001604052807f0e9a03ba4bef39b6d046ef153983e29fe8ffab9d37b04aaa1cffd8e1044bc87681526020017f2e7e9d2590f417df5ea4d0efebd8a489ba15954a0b24f30f875b1ec21f6354a3815250816080015160008151811061084b5761084a611cbf565b5b602002602001018190525060405180604001604052807f011c2aed300aa297afd20398775fbf8e8e6d9136de13608e13ed6204155a755281526020017f24315a3813e71db1533f7ec00eb26c99d67196dfe6343cca586fd5a9066f4d8b81525081608001516001815181106108c3576108c2611cbf565b5b602002602001018190525060405180604001604052807f0e9353ed74793cbdf3ead93f3895b91a94a5c6f4062e4b7e952742b6b97bed9581526020017f05cafd206a19d4d662cd5bbae59918c327adc6f4fe86fbf87948f0a124df9be1815250816080015160028151811061093b5761093a611cbf565b5b602002602001018190525060405180604001604052807f0e59257e51cdccd742a7233ab2d3845b918b48e65d46419ff4c8bb9c2a72872881526020017f168910ac8b5386e3f488e0422266ef3cd8c85a83f2298c3dd0f7a99996a9240681525081608001516003815181106109b3576109b2611cbf565b5b602002602001018190525060405180604001604052807f1e8a2ebe3c4c3a74ef7174cbfdc2526cccc6ebba9a87014231c41181ad2c668681526020017f2445ca1a75c193d6ee31ab64e0849eec6a82018362106e58817d18e7fdaf4bce8152508160800151600481518110610a2b57610a2a611cbf565b5b602002602001018190525060405180604001604052807f24dc9281a3322dd105bc582330115d692c89a073746bab618d762b550579ab4d81526020017f03a84cc4530c2757809fe0def20df9e5a81e4900f0f87afb561ac43f6ef67f668152508160800151600581518110610aa357610aa2611cbf565b5b602002602001018190525060405180604001604052807f2971d6120d062ec6e9aa50df980749aff4671125c6befc248d2dc65011faabd481526020017f29727a2b76e847fe07838e78bc67703b0a6aa9ca33a39e9c2c7a3806f5851b8f8152508160800151600681518110610b1b57610b1a611cbf565b5b602002602001018190525060405180604001604052807f2068d39286e44cb4f656d5b6658704a96ff97fbcbe6a456251c5c760786652d781526020017f0b5f64e217be52cfe3e009b0604ac885e6a5418328c8ee9c16a7dcf329b09e488152508160800151600781518110610b9357610b92611cbf565b5b602002602001018190525060405180604001604052807f16914c0821f249ccf8392c16f35ad8d7e18313827d51629aa0564ac557057e7281526020017f0bdb0bc46fb1746a16cac659f737d1f0536825643deda2269e70ac3337b513338152508160800151600881518110610c0b57610c0a611cbf565b5b602002602001018190525060405180604001604052807f15f1a8f48b1af25ee1151f3f1bd6062ed1e1fff9ebcf26bab456796efba0af9281526020017ee8a342f2cb466bb3097bdd89c1b066a177b5eb85675b8af69fc6019ea5f4538152508160800151600981518110610c8257610c81611cbf565b5b602002602001018190525060405180604001604052807f06b40b444242e4ff90ada3eab7233ebd54ef172e329ca4bd27a7cfc396a2be6081526020017f0c95da457b91df8c806580cfbe481418fb8228d2aad8d314c5183cd047e3aeae8152508160800151600a81518110610cfa57610cf9611cbf565b5b602002602001018190525060405180604001604052807f2860cab336e4f5baf10f725b58886fb6854dc0c81b01e35a706446201c3bf04c81526020017f0a9e6b4708ddf258233486774f2d075060fa533d36931a3b469080ce378442688152508160800151600b81518110610d7257610d71611cbf565b5b602002602001018190525060405180604001604052807f10b64957387b4d833ccb4c6adff36a0aaeaf4e7aeda3c71ae3292223a030e9bc81526020017f2c676e6ca7616ef6452af301fba2d44b89ef313053f6ea387d506b82931e0b7c8152508160800151600c81518110610dea57610de9611cbf565b5b602002602001018190525060405180604001604052807f03ee99ee0c2c31c2a05b061130238f67432f4f0c46b40125359cae835cb0311c81526020017f27978a18ec07de5157a9f5b38d5f0147551922e7972abb784a17788d5e5720898152508160800151600d81518110610e6257610e61611cbf565b5b602002602001018190525060405180604001604052807f0b85e3f71052acada6747d84e3a14bb0775b29d8fd661a092de02e4a81a516f381526020017f0838c40cf17e9889f2f62127ec69f78d8015c7a621a45fbab963c456a29f37928152508160800151600e81518110610eda57610ed9611cbf565b5b602002602001018190525060405180604001604052807f13a8e292e641efd9ecbbfab1a087095b8b893eb7d26c85f370dc24518959796e81526020017f111930098e05134607a988ba349376d1a0d4d00602c3ba966a83b1ba3f9db6bc8152508160800151600f81518110610f5257610f51611cbf565b5b602002602001018190525060405180604001604052807f1289361816cf79d7ab37bf5e5a598d014367631bdb67127204f108169b27883f81526020017efd21a99ad6f747d0336e2756ffbadbe6f9cf5b8e7e8dd69c4bd436731a94e38152508160800151601081518110610fc957610fc8611cbf565b5b602002602001018190525090565b610fdf61186a565b610fe7611884565b83600001518160006003811061100057610fff611cbf565b5b60200201818152505083602001518160016003811061102257611021611cbf565b5b60200201818152505082816002600381106110405761103f611cbf565b5b602002018181525050600060608360808460076107d05a03fa905080600081146110695761106b565bfe5b50806110ac576040517f08c379a00000000000000000000000000000000000000000000000000000000081526004016110a390611ef1565b60405180910390fd5b505092915050565b6110bc61186a565b6110c46118a6565b8360000151816000600481106110dd576110dc611cbf565b5b6020020181815250508360200151816001600481106110ff576110fe611cbf565b5b60200201818152505082600001518160026004811061112157611120611cbf565b5b60200201818152505082602001518160036004811061114357611142611cbf565b5b602002018181525050600060608360c08460066107d05a03fa9050806000811461116c5761116e565bfe5b50806111af576040517f08c379a00000000000000000000000000000000000000000000000000000000081526004016111a690611f5d565b60405180910390fd5b505092915050565b6111bf61186a565b60007f30644e72e131a029b85045b68181585d97816a916871ca8d3c208c16d87cfd479050600083600001511480156111fc575060008360200151145b15611220576040518060400160405280600081526020016000815250915050611257565b6040518060400160405280846000015181526020018285602001516112459190611fac565b836112509190611fdd565b8152509150505b919050565b600080600467ffffffffffffffff81111561127a57611279611957565b5b6040519080825280602002602001820160405280156112b357816020015b6112a061186a565b8152602001906001900390816112985790505b5090506000600467ffffffffffffffff8111156112d3576112d2611957565b5b60405190808252806020026020018201604052801561130c57816020015b6112f96118c8565b8152602001906001900390816112f15790505b5090508a8260008151811061132457611323611cbf565b5b6020026020010181905250888260018151811061134457611343611cbf565b5b6020026020010181905250868260028151811061136457611363611cbf565b5b6020026020010181905250848260038151811061138457611383611cbf565b5b602002602001018190525089816000815181106113a4576113a3611cbf565b5b602002602001018190525087816001815181106113c4576113c3611cbf565b5b602002602001018190525085816002815181106113e4576113e3611cbf565b5b6020026020010181905250838160038151811061140457611403611cbf565b5b60200260200101819052506114198282611429565b9250505098975050505050505050565b6000815183511461146f576040517f08c379a00000000000000000000000000000000000000000000000000000000081526004016114669061205d565b60405180910390fd5b6000835190506000600682611484919061207d565b905060008167ffffffffffffffff8111156114a2576114a1611957565b5b6040519080825280602002602001820160405280156114d05781602001602082028036833780820191505090505b50905060005b83811015611755578681815181106114f1576114f0611cbf565b5b60200260200101516000015182600060068461150d919061207d565b6115179190611d66565b8151811061152857611527611cbf565b5b60200260200101818152505086818151811061154757611546611cbf565b5b602002602001015160200151826001600684611563919061207d565b61156d9190611d66565b8151811061157e5761157d611cbf565b5b60200260200101818152505085818151811061159d5761159c611cbf565b5b6020026020010151600001516000600281106115bc576115bb611cbf565b5b60200201518260026006846115d1919061207d565b6115db9190611d66565b815181106115ec576115eb611cbf565b5b60200260200101818152505085818151811061160b5761160a611cbf565b5b60200260200101516000015160016002811061162a57611629611cbf565b5b602002015182600360068461163f919061207d565b6116499190611d66565b8151811061165a57611659611cbf565b5b60200260200101818152505085818151811061167957611678611cbf565b5b60200260200101516020015160006002811061169857611697611cbf565b5b60200201518260046006846116ad919061207d565b6116b79190611d66565b815181106116c8576116c7611cbf565b5b6020026020010181815250508581815181106116e7576116e6611cbf565b5b60200260200101516020015160016002811061170657611705611cbf565b5b602002015182600560068461171b919061207d565b6117259190611d66565b8151811061173657611735611cbf565b5b602002602001018181525050808061174d90611d1d565b9150506114d6565b5061175e6118ee565b6000602082602086026020860160086107d05a03fa9050806000811461178357611785565bfe5b50806117c6576040517f08c379a00000000000000000000000000000000000000000000000000000000081526004016117bd90612123565b60405180910390fd5b6000826000600181106117dc576117db611cbf565b5b602002015114159550505050505092915050565b604051806060016040528061180361186a565b81526020016118106118c8565b815260200161181d61186a565b81525090565b6040518060a0016040528061183661186a565b81526020016118436118c8565b81526020016118506118c8565b815260200161185d6118c8565b8152602001606081525090565b604051806040016040528060008152602001600081525090565b6040518060600160405280600390602082028036833780820191505090505090565b6040518060800160405280600490602082028036833780820191505090505090565b60405180604001604052806118db611910565b81526020016118e8611910565b81525090565b6040518060200160405280600190602082028036833780820191505090505090565b6040518060400160405280600290602082028036833780820191505090505090565b6000604051905090565b600080fd5b600080fd5b6000601f19601f8301169050919050565b7f4e487b7100000000000000000000000000000000000000000000000000000000600052604160045260246000fd5b61198f82611946565b810181811067ffffffffffffffff821117156119ae576119ad611957565b5b80604052505050565b60006119c1611932565b90506119cd8282611986565b919050565b600067ffffffffffffffff8211156119ed576119ec611957565b5b602082029050919050565b600080fd5b6000819050919050565b611a10816119fd565b8114611a1b57600080fd5b50565b600081359050611a2d81611a07565b92915050565b6000611a46611a41846119d2565b6119b7565b90508060208402830185811115611a6057611a5f6119f8565b5b835b81811015611a895780611a758882611a1e565b845260208401935050602081019050611a62565b5050509392505050565b600082601f830112611aa857611aa7611941565b5b6002611ab5848285611a33565b91505092915050565b600067ffffffffffffffff821115611ad957611ad8611957565b5b602082029050919050565b6000611af7611af284611abe565b6119b7565b90508060408402830185811115611b1157611b106119f8565b5b835b81811015611b3a5780611b268882611a93565b845260208401935050604081019050611b13565b5050509392505050565b600082601f830112611b5957611b58611941565b5b6002611b66848285611ae4565b91505092915050565b600067ffffffffffffffff821115611b8a57611b89611957565b5b602082029050919050565b6000611ba8611ba384611b6f565b6119b7565b90508060208402830185811115611bc257611bc16119f8565b5b835b81811015611beb5780611bd78882611a1e565b845260208401935050602081019050611bc4565b5050509392505050565b600082601f830112611c0a57611c09611941565b5b6010611c17848285611b95565b91505092915050565b6000806000806103008587031215611c3b57611c3a61193c565b5b6000611c4987828801611a93565b9450506040611c5a87828801611b44565b93505060c0611c6b87828801611a93565b925050610100611c7d87828801611bf5565b91505092959194509250565b60008115159050919050565b611c9e81611c89565b82525050565b6000602082019050611cb96000830184611c95565b92915050565b7f4e487b7100000000000000000000000000000000000000000000000000000000600052603260045260246000fd5b7f4e487b7100000000000000000000000000000000000000000000000000000000600052601160045260246000fd5b6000611d28826119fd565b91507fffffffffffffffffffffffffffffffffffffffffffffffffffffffffffffffff821415611d5b57611d5a611cee565b5b600182019050919050565b6000611d71826119fd565b9150611d7c836119fd565b9250827fffffffffffffffffffffffffffffffffffffffffffffffffffffffffffffffff03821115611db157611db0611cee565b5b828201905092915050565b600082825260208201905092915050565b7f76657269666965722d6261642d696e7075740000000000000000000000000000600082015250565b6000611e03601283611dbc565b9150611e0e82611dcd565b602082019050919050565b60006020820190508181036000830152611e3281611df6565b9050919050565b7f76657269666965722d6774652d736e61726b2d7363616c61722d6669656c6400600082015250565b6000611e6f601f83611dbc565b9150611e7a82611e39565b602082019050919050565b60006020820190508181036000830152611e9e81611e62565b9050919050565b7f70616972696e672d6d756c2d6661696c65640000000000000000000000000000600082015250565b6000611edb601283611dbc565b9150611ee682611ea5565b602082019050919050565b60006020820190508181036000830152611f0a81611ece565b9050919050565b7f70616972696e672d6164642d6661696c65640000000000000000000000000000600082015250565b6000611f47601283611dbc565b9150611f5282611f11565b602082019050919050565b60006020820190508181036000830152611f7681611f3a565b9050919050565b7f4e487b7100000000000000000000000000000000000000000000000000000000600052601260045260246000fd5b6000611fb7826119fd565b9150611fc2836119fd565b925082611fd257611fd1611f7d565b5b828206905092915050565b6000611fe8826119fd565b9150611ff3836119fd565b92508282101561200657612005611cee565b5b828203905092915050565b7f70616972696e672d6c656e677468732d6661696c656400000000000000000000600082015250565b6000612047601683611dbc565b915061205282612011565b602082019050919050565b600060208201905081810360008301526120768161203a565b9050919050565b6000612088826119fd565b9150612093836119fd565b9250817fffffffffffffffffffffffffffffffffffffffffffffffffffffffffffffffff04831182151516156120cc576120cb611cee565b5b828202905092915050565b7f70616972696e672d6f70636f64652d6661696c65640000000000000000000000600082015250565b600061210d601583611dbc565b9150612118826120d7565b602082019050919050565b6000602082019050818103600083015261213c81612100565b905091905056fea2646970667358221220a24b2895813d333c9e476d3f1802f28cfd8e999779027417a54e2a4c682e33bc64736f6c63430008090033",
          "opcodes": "PUSH1 0x80 PUSH1 0x40 MSTORE CALLVALUE DUP1 ISZERO PUSH2 0x10 JUMPI PUSH1 0x0 DUP1 REVERT JUMPDEST POP PUSH2 0x2179 DUP1 PUSH2 0x20 PUSH1 0x0 CODECOPY PUSH1 0x0 RETURN INVALID PUSH1 0x80 PUSH1 0x40 MSTORE CALLVALUE DUP1 ISZERO PUSH2 0x10 JUMPI PUSH1 0x0 DUP1 REVERT JUMPDEST POP PUSH1 0x4 CALLDATASIZE LT PUSH2 0x2B JUMPI PUSH1 0x0 CALLDATALOAD PUSH1 0xE0 SHR DUP1 PUSH4 0xC82FEBF5 EQ PUSH2 0x30 JUMPI JUMPDEST PUSH1 0x0 DUP1 REVERT JUMPDEST PUSH2 0x4A PUSH1 0x4 DUP1 CALLDATASIZE SUB DUP2 ADD SWAP1 PUSH2 0x45 SWAP2 SWAP1 PUSH2 0x1C20 JUMP JUMPDEST PUSH2 0x60 JUMP JUMPDEST PUSH1 0x40 MLOAD PUSH2 0x57 SWAP2 SWAP1 PUSH2 0x1CA4 JUMP JUMPDEST PUSH1 0x40 MLOAD DUP1 SWAP2 SUB SWAP1 RETURN JUMPDEST PUSH1 0x0 PUSH2 0x6A PUSH2 0x17F0 JUMP JUMPDEST PUSH1 0x40 MLOAD DUP1 PUSH1 0x40 ADD PUSH1 0x40 MSTORE DUP1 DUP8 PUSH1 0x0 PUSH1 0x2 DUP2 LT PUSH2 0x89 JUMPI PUSH2 0x88 PUSH2 0x1CBF JUMP JUMPDEST JUMPDEST PUSH1 0x20 MUL ADD MLOAD DUP2 MSTORE PUSH1 0x20 ADD DUP8 PUSH1 0x1 PUSH1 0x2 DUP2 LT PUSH2 0xA7 JUMPI PUSH2 0xA6 PUSH2 0x1CBF JUMP JUMPDEST JUMPDEST PUSH1 0x20 MUL ADD MLOAD DUP2 MSTORE POP DUP2 PUSH1 0x0 ADD DUP2 SWAP1 MSTORE POP PUSH1 0x40 MLOAD DUP1 PUSH1 0x40 ADD PUSH1 0x40 MSTORE DUP1 PUSH1 0x40 MLOAD DUP1 PUSH1 0x40 ADD PUSH1 0x40 MSTORE DUP1 DUP9 PUSH1 0x0 PUSH1 0x2 DUP2 LT PUSH2 0xE1 JUMPI PUSH2 0xE0 PUSH2 0x1CBF JUMP JUMPDEST JUMPDEST PUSH1 0x20 MUL ADD MLOAD PUSH1 0x0 PUSH1 0x2 DUP2 LT PUSH2 0xF9 JUMPI PUSH2 0xF8 PUSH2 0x1CBF JUMP JUMPDEST JUMPDEST PUSH1 0x20 MUL ADD MLOAD DUP2 MSTORE PUSH1 0x20 ADD DUP9 PUSH1 0x0 PUSH1 0x2 DUP2 LT PUSH2 0x117 JUMPI PUSH2 0x116 PUSH2 0x1CBF JUMP JUMPDEST JUMPDEST PUSH1 0x20 MUL ADD MLOAD PUSH1 0x1 PUSH1 0x2 DUP2 LT PUSH2 0x12F JUMPI PUSH2 0x12E PUSH2 0x1CBF JUMP JUMPDEST JUMPDEST PUSH1 0x20 MUL ADD MLOAD DUP2 MSTORE POP DUP2 MSTORE PUSH1 0x20 ADD PUSH1 0x40 MLOAD DUP1 PUSH1 0x40 ADD PUSH1 0x40 MSTORE DUP1 DUP9 PUSH1 0x1 PUSH1 0x2 DUP2 LT PUSH2 0x15B JUMPI PUSH2 0x15A PUSH2 0x1CBF JUMP JUMPDEST JUMPDEST PUSH1 0x20 MUL ADD MLOAD PUSH1 0x0 PUSH1 0x2 DUP2 LT PUSH2 0x173 JUMPI PUSH2 0x172 PUSH2 0x1CBF JUMP JUMPDEST JUMPDEST PUSH1 0x20 MUL ADD MLOAD DUP2 MSTORE PUSH1 0x20 ADD DUP9 PUSH1 0x1 PUSH1 0x2 DUP2 LT PUSH2 0x191 JUMPI PUSH2 0x190 PUSH2 0x1CBF JUMP JUMPDEST JUMPDEST PUSH1 0x20 MUL ADD MLOAD PUSH1 0x1 PUSH1 0x2 DUP2 LT PUSH2 0x1A9 JUMPI PUSH2 0x1A8 PUSH2 0x1CBF JUMP JUMPDEST JUMPDEST PUSH1 0x20 MUL ADD MLOAD DUP2 MSTORE POP DUP2 MSTORE POP DUP2 PUSH1 0x20 ADD DUP2 SWAP1 MSTORE POP PUSH1 0x40 MLOAD DUP1 PUSH1 0x40 ADD PUSH1 0x40 MSTORE DUP1 DUP6 PUSH1 0x0 PUSH1 0x2 DUP2 LT PUSH2 0x1DB JUMPI PUSH2 0x1DA PUSH2 0x1CBF JUMP JUMPDEST JUMPDEST PUSH1 0x20 MUL ADD MLOAD DUP2 MSTORE PUSH1 0x20 ADD DUP6 PUSH1 0x1 PUSH1 0x2 DUP2 LT PUSH2 0x1F9 JUMPI PUSH2 0x1F8 PUSH2 0x1CBF JUMP JUMPDEST JUMPDEST PUSH1 0x20 MUL ADD MLOAD DUP2 MSTORE POP DUP2 PUSH1 0x40 ADD DUP2 SWAP1 MSTORE POP PUSH1 0x0 PUSH1 0x10 PUSH8 0xFFFFFFFFFFFFFFFF DUP2 GT ISZERO PUSH2 0x226 JUMPI PUSH2 0x225 PUSH2 0x1957 JUMP JUMPDEST JUMPDEST PUSH1 0x40 MLOAD SWAP1 DUP1 DUP3 MSTORE DUP1 PUSH1 0x20 MUL PUSH1 0x20 ADD DUP3 ADD PUSH1 0x40 MSTORE DUP1 ISZERO PUSH2 0x254 JUMPI DUP2 PUSH1 0x20 ADD PUSH1 0x20 DUP3 MUL DUP1 CALLDATASIZE DUP4 CALLDATACOPY DUP1 DUP3 ADD SWAP2 POP POP SWAP1 POP JUMPDEST POP SWAP1 POP PUSH1 0x0 JUMPDEST PUSH1 0x10 DUP2 LT ISZERO PUSH2 0x2AD JUMPI DUP5 DUP2 PUSH1 0x10 DUP2 LT PUSH2 0x276 JUMPI PUSH2 0x275 PUSH2 0x1CBF JUMP JUMPDEST JUMPDEST PUSH1 0x20 MUL ADD MLOAD DUP3 DUP3 DUP2 MLOAD DUP2 LT PUSH2 0x28E JUMPI PUSH2 0x28D PUSH2 0x1CBF JUMP JUMPDEST JUMPDEST PUSH1 0x20 MUL PUSH1 0x20 ADD ADD DUP2 DUP2 MSTORE POP POP DUP1 DUP1 PUSH2 0x2A5 SWAP1 PUSH2 0x1D1D JUMP JUMPDEST SWAP2 POP POP PUSH2 0x25A JUMP JUMPDEST POP PUSH1 0x0 PUSH2 0x2BA DUP3 DUP5 PUSH2 0x2DA JUMP JUMPDEST EQ ISZERO PUSH2 0x2CB JUMPI PUSH1 0x1 SWAP3 POP POP POP PUSH2 0x2D2 JUMP JUMPDEST PUSH1 0x0 SWAP3 POP POP POP JUMPDEST SWAP5 SWAP4 POP POP POP POP JUMP JUMPDEST PUSH1 0x0 DUP1 PUSH32 0x30644E72E131A029B85045B68181585D2833E84879B9709143E1F593F0000001 SWAP1 POP PUSH1 0x0 PUSH2 0x30A PUSH2 0x4CD JUMP JUMPDEST SWAP1 POP DUP1 PUSH1 0x80 ADD MLOAD MLOAD PUSH1 0x1 DUP7 MLOAD PUSH2 0x320 SWAP2 SWAP1 PUSH2 0x1D66 JUMP JUMPDEST EQ PUSH2 0x360 JUMPI PUSH1 0x40 MLOAD PUSH32 0x8C379A000000000000000000000000000000000000000000000000000000000 DUP2 MSTORE PUSH1 0x4 ADD PUSH2 0x357 SWAP1 PUSH2 0x1E19 JUMP JUMPDEST PUSH1 0x40 MLOAD DUP1 SWAP2 SUB SWAP1 REVERT JUMPDEST PUSH1 0x0 PUSH1 0x40 MLOAD DUP1 PUSH1 0x40 ADD PUSH1 0x40 MSTORE DUP1 PUSH1 0x0 DUP2 MSTORE PUSH1 0x20 ADD PUSH1 0x0 DUP2 MSTORE POP SWAP1 POP PUSH1 0x0 JUMPDEST DUP7 MLOAD DUP2 LT ISZERO PUSH2 0x44F JUMPI DUP4 DUP8 DUP3 DUP2 MLOAD DUP2 LT PUSH2 0x39B JUMPI PUSH2 0x39A PUSH2 0x1CBF JUMP JUMPDEST JUMPDEST PUSH1 0x20 MUL PUSH1 0x20 ADD ADD MLOAD LT PUSH2 0x3E3 JUMPI PUSH1 0x40 MLOAD PUSH32 0x8C379A000000000000000000000000000000000000000000000000000000000 DUP2 MSTORE PUSH1 0x4 ADD PUSH2 0x3DA SWAP1 PUSH2 0x1E85 JUMP JUMPDEST PUSH1 0x40 MLOAD DUP1 SWAP2 SUB SWAP1 REVERT JUMPDEST PUSH2 0x43A DUP3 PUSH2 0x435 DUP6 PUSH1 0x80 ADD MLOAD PUSH1 0x1 DUP6 PUSH2 0x3FC SWAP2 SWAP1 PUSH2 0x1D66 JUMP JUMPDEST DUP2 MLOAD DUP2 LT PUSH2 0x40D JUMPI PUSH2 0x40C PUSH2 0x1CBF JUMP JUMPDEST JUMPDEST PUSH1 0x20 MUL PUSH1 0x20 ADD ADD MLOAD DUP11 DUP6 DUP2 MLOAD DUP2 LT PUSH2 0x428 JUMPI PUSH2 0x427 PUSH2 0x1CBF JUMP JUMPDEST JUMPDEST PUSH1 0x20 MUL PUSH1 0x20 ADD ADD MLOAD PUSH2 0xFD7 JUMP JUMPDEST PUSH2 0x10B4 JUMP JUMPDEST SWAP2 POP DUP1 DUP1 PUSH2 0x447 SWAP1 PUSH2 0x1D1D JUMP JUMPDEST SWAP2 POP POP PUSH2 0x37E JUMP JUMPDEST POP PUSH2 0x479 DUP2 DUP4 PUSH1 0x80 ADD MLOAD PUSH1 0x0 DUP2 MLOAD DUP2 LT PUSH2 0x46C JUMPI PUSH2 0x46B PUSH2 0x1CBF JUMP JUMPDEST JUMPDEST PUSH1 0x20 MUL PUSH1 0x20 ADD ADD MLOAD PUSH2 0x10B4 JUMP JUMPDEST SWAP1 POP PUSH2 0x4AF PUSH2 0x48B DUP7 PUSH1 0x0 ADD MLOAD PUSH2 0x11B7 JUMP JUMPDEST DUP7 PUSH1 0x20 ADD MLOAD DUP5 PUSH1 0x0 ADD MLOAD DUP6 PUSH1 0x20 ADD MLOAD DUP6 DUP8 PUSH1 0x40 ADD MLOAD DUP12 PUSH1 0x40 ADD MLOAD DUP10 PUSH1 0x60 ADD MLOAD PUSH2 0x125C JUMP JUMPDEST PUSH2 0x4BF JUMPI PUSH1 0x1 SWAP4 POP POP POP POP PUSH2 0x4C7 JUMP JUMPDEST PUSH1 0x0 SWAP4 POP POP POP POP JUMPDEST SWAP3 SWAP2 POP POP JUMP JUMPDEST PUSH2 0x4D5 PUSH2 0x1823 JUMP JUMPDEST PUSH1 0x40 MLOAD DUP1 PUSH1 0x40 ADD PUSH1 0x40 MSTORE DUP1 PUSH32 0x2D4D9AA7E302D9DF41749D5507949D05DBEA33FBB16C643B22F599A2BE6DF2E2 DUP2 MSTORE PUSH1 0x20 ADD PUSH32 0x14BEDD503C37CEB061D8EC60209FE345CE89830A19230301F076CAFF004D1926 DUP2 MSTORE POP DUP2 PUSH1 0x0 ADD DUP2 SWAP1 MSTORE POP PUSH1 0x40 MLOAD DUP1 PUSH1 0x40 ADD PUSH1 0x40 MSTORE DUP1 PUSH1 0x40 MLOAD DUP1 PUSH1 0x40 ADD PUSH1 0x40 MSTORE DUP1 PUSH32 0x967032FCBF776D1AFC985F88877F182D38480A653F2DECAA9794CBC3BF3060C DUP2 MSTORE PUSH1 0x20 ADD PUSH32 0xE187847AD4C798374D0D6732BF501847DD68BC0E071241E0213BC7FC13DB7AB DUP2 MSTORE POP DUP2 MSTORE PUSH1 0x20 ADD PUSH1 0x40 MLOAD DUP1 PUSH1 0x40 ADD PUSH1 0x40 MSTORE DUP1 PUSH32 0x304CFBD1E08A704A99F5E847D93F8C3CAAFDDEC46B7A0D379DA69A4D112346A7 DUP2 MSTORE PUSH1 0x20 ADD PUSH32 0x1739C1B1A457A8C7313123D24D2F9192F896B7C63EEA05A9D57F06547AD0CEC8 DUP2 MSTORE POP DUP2 MSTORE POP DUP2 PUSH1 0x20 ADD DUP2 SWAP1 MSTORE POP PUSH1 0x40 MLOAD DUP1 PUSH1 0x40 ADD PUSH1 0x40 MSTORE DUP1 PUSH1 0x40 MLOAD DUP1 PUSH1 0x40 ADD PUSH1 0x40 MSTORE DUP1 PUSH32 0x198E9393920D483A7260BFB731FB5D25F1AA493335A9E71297E485B7AEF312C2 DUP2 MSTORE PUSH1 0x20 ADD PUSH32 0x1800DEEF121F1E76426A00665E5C4479674322D4F75EDADD46DEBD5CD992F6ED DUP2 MSTORE POP DUP2 MSTORE PUSH1 0x20 ADD PUSH1 0x40 MLOAD DUP1 PUSH1 0x40 ADD PUSH1 0x40 MSTORE DUP1 PUSH32 0x90689D0585FF075EC9E99AD690C3395BC4B313370B38EF355ACDADCD122975B DUP2 MSTORE PUSH1 0x20 ADD PUSH32 0x12C85EA5DB8C6DEB4AAB71808DCB408FE3D1E7690C43D37B4CE6CC0166FA7DAA DUP2 MSTORE POP DUP2 MSTORE POP DUP2 PUSH1 0x40 ADD DUP2 SWAP1 MSTORE POP PUSH1 0x40 MLOAD DUP1 PUSH1 0x40 ADD PUSH1 0x40 MSTORE DUP1 PUSH1 0x40 MLOAD DUP1 PUSH1 0x40 ADD PUSH1 0x40 MSTORE DUP1 PUSH32 0x1F22BCB3BD2147B4C2B78FF3B6170CF33F4060AA67ED5699E3D81428B1D505EC DUP2 MSTORE PUSH1 0x20 ADD PUSH32 0xEF4F7A0D65D65B20E72D105B3DE89BD248A2BD735E954953B00DCE6DA11BF73 DUP2 MSTORE POP DUP2 MSTORE PUSH1 0x20 ADD PUSH1 0x40 MLOAD DUP1 PUSH1 0x40 ADD PUSH1 0x40 MSTORE DUP1 PUSH32 0x2DC19A2CA9340DC1F7A40B04E9647A298964A63AA510CFE97CF6087F1A991E41 DUP2 MSTORE PUSH1 0x20 ADD PUSH32 0x14BD6FDA975F8E033FE54EC13DA5530D7555C42CA5EF87F3442FC0B8D4E428BE DUP2 MSTORE POP DUP2 MSTORE POP DUP2 PUSH1 0x60 ADD DUP2 SWAP1 MSTORE POP PUSH1 0x11 PUSH8 0xFFFFFFFFFFFFFFFF DUP2 GT ISZERO PUSH2 0x79C JUMPI PUSH2 0x79B PUSH2 0x1957 JUMP JUMPDEST JUMPDEST PUSH1 0x40 MLOAD SWAP1 DUP1 DUP3 MSTORE DUP1 PUSH1 0x20 MUL PUSH1 0x20 ADD DUP3 ADD PUSH1 0x40 MSTORE DUP1 ISZERO PUSH2 0x7D5 JUMPI DUP2 PUSH1 0x20 ADD JUMPDEST PUSH2 0x7C2 PUSH2 0x186A JUMP JUMPDEST DUP2 MSTORE PUSH1 0x20 ADD SWAP1 PUSH1 0x1 SWAP1 SUB SWAP1 DUP2 PUSH2 0x7BA JUMPI SWAP1 POP JUMPDEST POP DUP2 PUSH1 0x80 ADD DUP2 SWAP1 MSTORE POP PUSH1 0x40 MLOAD DUP1 PUSH1 0x40 ADD PUSH1 0x40 MSTORE DUP1 PUSH32 0xE9A03BA4BEF39B6D046EF153983E29FE8FFAB9D37B04AAA1CFFD8E1044BC876 DUP2 MSTORE PUSH1 0x20 ADD PUSH32 0x2E7E9D2590F417DF5EA4D0EFEBD8A489BA15954A0B24F30F875B1EC21F6354A3 DUP2 MSTORE POP DUP2 PUSH1 0x80 ADD MLOAD PUSH1 0x0 DUP2 MLOAD DUP2 LT PUSH2 0x84B JUMPI PUSH2 0x84A PUSH2 0x1CBF JUMP JUMPDEST JUMPDEST PUSH1 0x20 MUL PUSH1 0x20 ADD ADD DUP2 SWAP1 MSTORE POP PUSH1 0x40 MLOAD DUP1 PUSH1 0x40 ADD PUSH1 0x40 MSTORE DUP1 PUSH32 0x11C2AED300AA297AFD20398775FBF8E8E6D9136DE13608E13ED6204155A7552 DUP2 MSTORE PUSH1 0x20 ADD PUSH32 0x24315A3813E71DB1533F7EC00EB26C99D67196DFE6343CCA586FD5A9066F4D8B DUP2 MSTORE POP DUP2 PUSH1 0x80 ADD MLOAD PUSH1 0x1 DUP2 MLOAD DUP2 LT PUSH2 0x8C3 JUMPI PUSH2 0x8C2 PUSH2 0x1CBF JUMP JUMPDEST JUMPDEST PUSH1 0x20 MUL PUSH1 0x20 ADD ADD DUP2 SWAP1 MSTORE POP PUSH1 0x40 MLOAD DUP1 PUSH1 0x40 ADD PUSH1 0x40 MSTORE DUP1 PUSH32 0xE9353ED74793CBDF3EAD93F3895B91A94A5C6F4062E4B7E952742B6B97BED95 DUP2 MSTORE PUSH1 0x20 ADD PUSH32 0x5CAFD206A19D4D662CD5BBAE59918C327ADC6F4FE86FBF87948F0A124DF9BE1 DUP2 MSTORE POP DUP2 PUSH1 0x80 ADD MLOAD PUSH1 0x2 DUP2 MLOAD DUP2 LT PUSH2 0x93B JUMPI PUSH2 0x93A PUSH2 0x1CBF JUMP JUMPDEST JUMPDEST PUSH1 0x20 MUL PUSH1 0x20 ADD ADD DUP2 SWAP1 MSTORE POP PUSH1 0x40 MLOAD DUP1 PUSH1 0x40 ADD PUSH1 0x40 MSTORE DUP1 PUSH32 0xE59257E51CDCCD742A7233AB2D3845B918B48E65D46419FF4C8BB9C2A728728 DUP2 MSTORE PUSH1 0x20 ADD PUSH32 0x168910AC8B5386E3F488E0422266EF3CD8C85A83F2298C3DD0F7A99996A92406 DUP2 MSTORE POP DUP2 PUSH1 0x80 ADD MLOAD PUSH1 0x3 DUP2 MLOAD DUP2 LT PUSH2 0x9B3 JUMPI PUSH2 0x9B2 PUSH2 0x1CBF JUMP JUMPDEST JUMPDEST PUSH1 0x20 MUL PUSH1 0x20 ADD ADD DUP2 SWAP1 MSTORE POP PUSH1 0x40 MLOAD DUP1 PUSH1 0x40 ADD PUSH1 0x40 MSTORE DUP1 PUSH32 0x1E8A2EBE3C4C3A74EF7174CBFDC2526CCCC6EBBA9A87014231C41181AD2C6686 DUP2 MSTORE PUSH1 0x20 ADD PUSH32 0x2445CA1A75C193D6EE31AB64E0849EEC6A82018362106E58817D18E7FDAF4BCE DUP2 MSTORE POP DUP2 PUSH1 0x80 ADD MLOAD PUSH1 0x4 DUP2 MLOAD DUP2 LT PUSH2 0xA2B JUMPI PUSH2 0xA2A PUSH2 0x1CBF JUMP JUMPDEST JUMPDEST PUSH1 0x20 MUL PUSH1 0x20 ADD ADD DUP2 SWAP1 MSTORE POP PUSH1 0x40 MLOAD DUP1 PUSH1 0x40 ADD PUSH1 0x40 MSTORE DUP1 PUSH32 0x24DC9281A3322DD105BC582330115D692C89A073746BAB618D762B550579AB4D DUP2 MSTORE PUSH1 0x20 ADD PUSH32 0x3A84CC4530C2757809FE0DEF20DF9E5A81E4900F0F87AFB561AC43F6EF67F66 DUP2 MSTORE POP DUP2 PUSH1 0x80 ADD MLOAD PUSH1 0x5 DUP2 MLOAD DUP2 LT PUSH2 0xAA3 JUMPI PUSH2 0xAA2 PUSH2 0x1CBF JUMP JUMPDEST JUMPDEST PUSH1 0x20 MUL PUSH1 0x20 ADD ADD DUP2 SWAP1 MSTORE POP PUSH1 0x40 MLOAD DUP1 PUSH1 0x40 ADD PUSH1 0x40 MSTORE DUP1 PUSH32 0x2971D6120D062EC6E9AA50DF980749AFF4671125C6BEFC248D2DC65011FAABD4 DUP2 MSTORE PUSH1 0x20 ADD PUSH32 0x29727A2B76E847FE07838E78BC67703B0A6AA9CA33A39E9C2C7A3806F5851B8F DUP2 MSTORE POP DUP2 PUSH1 0x80 ADD MLOAD PUSH1 0x6 DUP2 MLOAD DUP2 LT PUSH2 0xB1B JUMPI PUSH2 0xB1A PUSH2 0x1CBF JUMP JUMPDEST JUMPDEST PUSH1 0x20 MUL PUSH1 0x20 ADD ADD DUP2 SWAP1 MSTORE POP PUSH1 0x40 MLOAD DUP1 PUSH1 0x40 ADD PUSH1 0x40 MSTORE DUP1 PUSH32 0x2068D39286E44CB4F656D5B6658704A96FF97FBCBE6A456251C5C760786652D7 DUP2 MSTORE PUSH1 0x20 ADD PUSH32 0xB5F64E217BE52CFE3E009B0604AC885E6A5418328C8EE9C16A7DCF329B09E48 DUP2 MSTORE POP DUP2 PUSH1 0x80 ADD MLOAD PUSH1 0x7 DUP2 MLOAD DUP2 LT PUSH2 0xB93 JUMPI PUSH2 0xB92 PUSH2 0x1CBF JUMP JUMPDEST JUMPDEST PUSH1 0x20 MUL PUSH1 0x20 ADD ADD DUP2 SWAP1 MSTORE POP PUSH1 0x40 MLOAD DUP1 PUSH1 0x40 ADD PUSH1 0x40 MSTORE DUP1 PUSH32 0x16914C0821F249CCF8392C16F35AD8D7E18313827D51629AA0564AC557057E72 DUP2 MSTORE PUSH1 0x20 ADD PUSH32 0xBDB0BC46FB1746A16CAC659F737D1F0536825643DEDA2269E70AC3337B51333 DUP2 MSTORE POP DUP2 PUSH1 0x80 ADD MLOAD PUSH1 0x8 DUP2 MLOAD DUP2 LT PUSH2 0xC0B JUMPI PUSH2 0xC0A PUSH2 0x1CBF JUMP JUMPDEST JUMPDEST PUSH1 0x20 MUL PUSH1 0x20 ADD ADD DUP2 SWAP1 MSTORE POP PUSH1 0x40 MLOAD DUP1 PUSH1 0x40 ADD PUSH1 0x40 MSTORE DUP1 PUSH32 0x15F1A8F48B1AF25EE1151F3F1BD6062ED1E1FFF9EBCF26BAB456796EFBA0AF92 DUP2 MSTORE PUSH1 0x20 ADD PUSH31 0xE8A342F2CB466BB3097BDD89C1B066A177B5EB85675B8AF69FC6019EA5F453 DUP2 MSTORE POP DUP2 PUSH1 0x80 ADD MLOAD PUSH1 0x9 DUP2 MLOAD DUP2 LT PUSH2 0xC82 JUMPI PUSH2 0xC81 PUSH2 0x1CBF JUMP JUMPDEST JUMPDEST PUSH1 0x20 MUL PUSH1 0x20 ADD ADD DUP2 SWAP1 MSTORE POP PUSH1 0x40 MLOAD DUP1 PUSH1 0x40 ADD PUSH1 0x40 MSTORE DUP1 PUSH32 0x6B40B444242E4FF90ADA3EAB7233EBD54EF172E329CA4BD27A7CFC396A2BE60 DUP2 MSTORE PUSH1 0x20 ADD PUSH32 0xC95DA457B91DF8C806580CFBE481418FB8228D2AAD8D314C5183CD047E3AEAE DUP2 MSTORE POP DUP2 PUSH1 0x80 ADD MLOAD PUSH1 0xA DUP2 MLOAD DUP2 LT PUSH2 0xCFA JUMPI PUSH2 0xCF9 PUSH2 0x1CBF JUMP JUMPDEST JUMPDEST PUSH1 0x20 MUL PUSH1 0x20 ADD ADD DUP2 SWAP1 MSTORE POP PUSH1 0x40 MLOAD DUP1 PUSH1 0x40 ADD PUSH1 0x40 MSTORE DUP1 PUSH32 0x2860CAB336E4F5BAF10F725B58886FB6854DC0C81B01E35A706446201C3BF04C DUP2 MSTORE PUSH1 0x20 ADD PUSH32 0xA9E6B4708DDF258233486774F2D075060FA533D36931A3B469080CE37844268 DUP2 MSTORE POP DUP2 PUSH1 0x80 ADD MLOAD PUSH1 0xB DUP2 MLOAD DUP2 LT PUSH2 0xD72 JUMPI PUSH2 0xD71 PUSH2 0x1CBF JUMP JUMPDEST JUMPDEST PUSH1 0x20 MUL PUSH1 0x20 ADD ADD DUP2 SWAP1 MSTORE POP PUSH1 0x40 MLOAD DUP1 PUSH1 0x40 ADD PUSH1 0x40 MSTORE DUP1 PUSH32 0x10B64957387B4D833CCB4C6ADFF36A0AAEAF4E7AEDA3C71AE3292223A030E9BC DUP2 MSTORE PUSH1 0x20 ADD PUSH32 0x2C676E6CA7616EF6452AF301FBA2D44B89EF313053F6EA387D506B82931E0B7C DUP2 MSTORE POP DUP2 PUSH1 0x80 ADD MLOAD PUSH1 0xC DUP2 MLOAD DUP2 LT PUSH2 0xDEA JUMPI PUSH2 0xDE9 PUSH2 0x1CBF JUMP JUMPDEST JUMPDEST PUSH1 0x20 MUL PUSH1 0x20 ADD ADD DUP2 SWAP1 MSTORE POP PUSH1 0x40 MLOAD DUP1 PUSH1 0x40 ADD PUSH1 0x40 MSTORE DUP1 PUSH32 0x3EE99EE0C2C31C2A05B061130238F67432F4F0C46B40125359CAE835CB0311C DUP2 MSTORE PUSH1 0x20 ADD PUSH32 0x27978A18EC07DE5157A9F5B38D5F0147551922E7972ABB784A17788D5E572089 DUP2 MSTORE POP DUP2 PUSH1 0x80 ADD MLOAD PUSH1 0xD DUP2 MLOAD DUP2 LT PUSH2 0xE62 JUMPI PUSH2 0xE61 PUSH2 0x1CBF JUMP JUMPDEST JUMPDEST PUSH1 0x20 MUL PUSH1 0x20 ADD ADD DUP2 SWAP1 MSTORE POP PUSH1 0x40 MLOAD DUP1 PUSH1 0x40 ADD PUSH1 0x40 MSTORE DUP1 PUSH32 0xB85E3F71052ACADA6747D84E3A14BB0775B29D8FD661A092DE02E4A81A516F3 DUP2 MSTORE PUSH1 0x20 ADD PUSH32 0x838C40CF17E9889F2F62127EC69F78D8015C7A621A45FBAB963C456A29F3792 DUP2 MSTORE POP DUP2 PUSH1 0x80 ADD MLOAD PUSH1 0xE DUP2 MLOAD DUP2 LT PUSH2 0xEDA JUMPI PUSH2 0xED9 PUSH2 0x1CBF JUMP JUMPDEST JUMPDEST PUSH1 0x20 MUL PUSH1 0x20 ADD ADD DUP2 SWAP1 MSTORE POP PUSH1 0x40 MLOAD DUP1 PUSH1 0x40 ADD PUSH1 0x40 MSTORE DUP1 PUSH32 0x13A8E292E641EFD9ECBBFAB1A087095B8B893EB7D26C85F370DC24518959796E DUP2 MSTORE PUSH1 0x20 ADD PUSH32 0x111930098E05134607A988BA349376D1A0D4D00602C3BA966A83B1BA3F9DB6BC DUP2 MSTORE POP DUP2 PUSH1 0x80 ADD MLOAD PUSH1 0xF DUP2 MLOAD DUP2 LT PUSH2 0xF52 JUMPI PUSH2 0xF51 PUSH2 0x1CBF JUMP JUMPDEST JUMPDEST PUSH1 0x20 MUL PUSH1 0x20 ADD ADD DUP2 SWAP1 MSTORE POP PUSH1 0x40 MLOAD DUP1 PUSH1 0x40 ADD PUSH1 0x40 MSTORE DUP1 PUSH32 0x1289361816CF79D7AB37BF5E5A598D014367631BDB67127204F108169B27883F DUP2 MSTORE PUSH1 0x20 ADD PUSH31 0xFD21A99AD6F747D0336E2756FFBADBE6F9CF5B8E7E8DD69C4BD436731A94E3 DUP2 MSTORE POP DUP2 PUSH1 0x80 ADD MLOAD PUSH1 0x10 DUP2 MLOAD DUP2 LT PUSH2 0xFC9 JUMPI PUSH2 0xFC8 PUSH2 0x1CBF JUMP JUMPDEST JUMPDEST PUSH1 0x20 MUL PUSH1 0x20 ADD ADD DUP2 SWAP1 MSTORE POP SWAP1 JUMP JUMPDEST PUSH2 0xFDF PUSH2 0x186A JUMP JUMPDEST PUSH2 0xFE7 PUSH2 0x1884 JUMP JUMPDEST DUP4 PUSH1 0x0 ADD MLOAD DUP2 PUSH1 0x0 PUSH1 0x3 DUP2 LT PUSH2 0x1000 JUMPI PUSH2 0xFFF PUSH2 0x1CBF JUMP JUMPDEST JUMPDEST PUSH1 0x20 MUL ADD DUP2 DUP2 MSTORE POP POP DUP4 PUSH1 0x20 ADD MLOAD DUP2 PUSH1 0x1 PUSH1 0x3 DUP2 LT PUSH2 0x1022 JUMPI PUSH2 0x1021 PUSH2 0x1CBF JUMP JUMPDEST JUMPDEST PUSH1 0x20 MUL ADD DUP2 DUP2 MSTORE POP POP DUP3 DUP2 PUSH1 0x2 PUSH1 0x3 DUP2 LT PUSH2 0x1040 JUMPI PUSH2 0x103F PUSH2 0x1CBF JUMP JUMPDEST JUMPDEST PUSH1 0x20 MUL ADD DUP2 DUP2 MSTORE POP POP PUSH1 0x0 PUSH1 0x60 DUP4 PUSH1 0x80 DUP5 PUSH1 0x7 PUSH2 0x7D0 GAS SUB STATICCALL SWAP1 POP DUP1 PUSH1 0x0 DUP2 EQ PUSH2 0x1069 JUMPI PUSH2 0x106B JUMP JUMPDEST INVALID JUMPDEST POP DUP1 PUSH2 0x10AC JUMPI PUSH1 0x40 MLOAD PUSH32 0x8C379A000000000000000000000000000000000000000000000000000000000 DUP2 MSTORE PUSH1 0x4 ADD PUSH2 0x10A3 SWAP1 PUSH2 0x1EF1 JUMP JUMPDEST PUSH1 0x40 MLOAD DUP1 SWAP2 SUB SWAP1 REVERT JUMPDEST POP POP SWAP3 SWAP2 POP POP JUMP JUMPDEST PUSH2 0x10BC PUSH2 0x186A JUMP JUMPDEST PUSH2 0x10C4 PUSH2 0x18A6 JUMP JUMPDEST DUP4 PUSH1 0x0 ADD MLOAD DUP2 PUSH1 0x0 PUSH1 0x4 DUP2 LT PUSH2 0x10DD JUMPI PUSH2 0x10DC PUSH2 0x1CBF JUMP JUMPDEST JUMPDEST PUSH1 0x20 MUL ADD DUP2 DUP2 MSTORE POP POP DUP4 PUSH1 0x20 ADD MLOAD DUP2 PUSH1 0x1 PUSH1 0x4 DUP2 LT PUSH2 0x10FF JUMPI PUSH2 0x10FE PUSH2 0x1CBF JUMP JUMPDEST JUMPDEST PUSH1 0x20 MUL ADD DUP2 DUP2 MSTORE POP POP DUP3 PUSH1 0x0 ADD MLOAD DUP2 PUSH1 0x2 PUSH1 0x4 DUP2 LT PUSH2 0x1121 JUMPI PUSH2 0x1120 PUSH2 0x1CBF JUMP JUMPDEST JUMPDEST PUSH1 0x20 MUL ADD DUP2 DUP2 MSTORE POP POP DUP3 PUSH1 0x20 ADD MLOAD DUP2 PUSH1 0x3 PUSH1 0x4 DUP2 LT PUSH2 0x1143 JUMPI PUSH2 0x1142 PUSH2 0x1CBF JUMP JUMPDEST JUMPDEST PUSH1 0x20 MUL ADD DUP2 DUP2 MSTORE POP POP PUSH1 0x0 PUSH1 0x60 DUP4 PUSH1 0xC0 DUP5 PUSH1 0x6 PUSH2 0x7D0 GAS SUB STATICCALL SWAP1 POP DUP1 PUSH1 0x0 DUP2 EQ PUSH2 0x116C JUMPI PUSH2 0x116E JUMP JUMPDEST INVALID JUMPDEST POP DUP1 PUSH2 0x11AF JUMPI PUSH1 0x40 MLOAD PUSH32 0x8C379A000000000000000000000000000000000000000000000000000000000 DUP2 MSTORE PUSH1 0x4 ADD PUSH2 0x11A6 SWAP1 PUSH2 0x1F5D JUMP JUMPDEST PUSH1 0x40 MLOAD DUP1 SWAP2 SUB SWAP1 REVERT JUMPDEST POP POP SWAP3 SWAP2 POP POP JUMP JUMPDEST PUSH2 0x11BF PUSH2 0x186A JUMP JUMPDEST PUSH1 0x0 PUSH32 0x30644E72E131A029B85045B68181585D97816A916871CA8D3C208C16D87CFD47 SWAP1 POP PUSH1 0x0 DUP4 PUSH1 0x0 ADD MLOAD EQ DUP1 ISZERO PUSH2 0x11FC JUMPI POP PUSH1 0x0 DUP4 PUSH1 0x20 ADD MLOAD EQ JUMPDEST ISZERO PUSH2 0x1220 JUMPI PUSH1 0x40 MLOAD DUP1 PUSH1 0x40 ADD PUSH1 0x40 MSTORE DUP1 PUSH1 0x0 DUP2 MSTORE PUSH1 0x20 ADD PUSH1 0x0 DUP2 MSTORE POP SWAP2 POP POP PUSH2 0x1257 JUMP JUMPDEST PUSH1 0x40 MLOAD DUP1 PUSH1 0x40 ADD PUSH1 0x40 MSTORE DUP1 DUP5 PUSH1 0x0 ADD MLOAD DUP2 MSTORE PUSH1 0x20 ADD DUP3 DUP6 PUSH1 0x20 ADD MLOAD PUSH2 0x1245 SWAP2 SWAP1 PUSH2 0x1FAC JUMP JUMPDEST DUP4 PUSH2 0x1250 SWAP2 SWAP1 PUSH2 0x1FDD JUMP JUMPDEST DUP2 MSTORE POP SWAP2 POP POP JUMPDEST SWAP2 SWAP1 POP JUMP JUMPDEST PUSH1 0x0 DUP1 PUSH1 0x4 PUSH8 0xFFFFFFFFFFFFFFFF DUP2 GT ISZERO PUSH2 0x127A JUMPI PUSH2 0x1279 PUSH2 0x1957 JUMP JUMPDEST JUMPDEST PUSH1 0x40 MLOAD SWAP1 DUP1 DUP3 MSTORE DUP1 PUSH1 0x20 MUL PUSH1 0x20 ADD DUP3 ADD PUSH1 0x40 MSTORE DUP1 ISZERO PUSH2 0x12B3 JUMPI DUP2 PUSH1 0x20 ADD JUMPDEST PUSH2 0x12A0 PUSH2 0x186A JUMP JUMPDEST DUP2 MSTORE PUSH1 0x20 ADD SWAP1 PUSH1 0x1 SWAP1 SUB SWAP1 DUP2 PUSH2 0x1298 JUMPI SWAP1 POP JUMPDEST POP SWAP1 POP PUSH1 0x0 PUSH1 0x4 PUSH8 0xFFFFFFFFFFFFFFFF DUP2 GT ISZERO PUSH2 0x12D3 JUMPI PUSH2 0x12D2 PUSH2 0x1957 JUMP JUMPDEST JUMPDEST PUSH1 0x40 MLOAD SWAP1 DUP1 DUP3 MSTORE DUP1 PUSH1 0x20 MUL PUSH1 0x20 ADD DUP3 ADD PUSH1 0x40 MSTORE DUP1 ISZERO PUSH2 0x130C JUMPI DUP2 PUSH1 0x20 ADD JUMPDEST PUSH2 0x12F9 PUSH2 0x18C8 JUMP JUMPDEST DUP2 MSTORE PUSH1 0x20 ADD SWAP1 PUSH1 0x1 SWAP1 SUB SWAP1 DUP2 PUSH2 0x12F1 JUMPI SWAP1 POP JUMPDEST POP SWAP1 POP DUP11 DUP3 PUSH1 0x0 DUP2 MLOAD DUP2 LT PUSH2 0x1324 JUMPI PUSH2 0x1323 PUSH2 0x1CBF JUMP JUMPDEST JUMPDEST PUSH1 0x20 MUL PUSH1 0x20 ADD ADD DUP2 SWAP1 MSTORE POP DUP9 DUP3 PUSH1 0x1 DUP2 MLOAD DUP2 LT PUSH2 0x1344 JUMPI PUSH2 0x1343 PUSH2 0x1CBF JUMP JUMPDEST JUMPDEST PUSH1 0x20 MUL PUSH1 0x20 ADD ADD DUP2 SWAP1 MSTORE POP DUP7 DUP3 PUSH1 0x2 DUP2 MLOAD DUP2 LT PUSH2 0x1364 JUMPI PUSH2 0x1363 PUSH2 0x1CBF JUMP JUMPDEST JUMPDEST PUSH1 0x20 MUL PUSH1 0x20 ADD ADD DUP2 SWAP1 MSTORE POP DUP5 DUP3 PUSH1 0x3 DUP2 MLOAD DUP2 LT PUSH2 0x1384 JUMPI PUSH2 0x1383 PUSH2 0x1CBF JUMP JUMPDEST JUMPDEST PUSH1 0x20 MUL PUSH1 0x20 ADD ADD DUP2 SWAP1 MSTORE POP DUP10 DUP2 PUSH1 0x0 DUP2 MLOAD DUP2 LT PUSH2 0x13A4 JUMPI PUSH2 0x13A3 PUSH2 0x1CBF JUMP JUMPDEST JUMPDEST PUSH1 0x20 MUL PUSH1 0x20 ADD ADD DUP2 SWAP1 MSTORE POP DUP8 DUP2 PUSH1 0x1 DUP2 MLOAD DUP2 LT PUSH2 0x13C4 JUMPI PUSH2 0x13C3 PUSH2 0x1CBF JUMP JUMPDEST JUMPDEST PUSH1 0x20 MUL PUSH1 0x20 ADD ADD DUP2 SWAP1 MSTORE POP DUP6 DUP2 PUSH1 0x2 DUP2 MLOAD DUP2 LT PUSH2 0x13E4 JUMPI PUSH2 0x13E3 PUSH2 0x1CBF JUMP JUMPDEST JUMPDEST PUSH1 0x20 MUL PUSH1 0x20 ADD ADD DUP2 SWAP1 MSTORE POP DUP4 DUP2 PUSH1 0x3 DUP2 MLOAD DUP2 LT PUSH2 0x1404 JUMPI PUSH2 0x1403 PUSH2 0x1CBF JUMP JUMPDEST JUMPDEST PUSH1 0x20 MUL PUSH1 0x20 ADD ADD DUP2 SWAP1 MSTORE POP PUSH2 0x1419 DUP3 DUP3 PUSH2 0x1429 JUMP JUMPDEST SWAP3 POP POP POP SWAP9 SWAP8 POP POP POP POP POP POP POP POP JUMP JUMPDEST PUSH1 0x0 DUP2 MLOAD DUP4 MLOAD EQ PUSH2 0x146F JUMPI PUSH1 0x40 MLOAD PUSH32 0x8C379A000000000000000000000000000000000000000000000000000000000 DUP2 MSTORE PUSH1 0x4 ADD PUSH2 0x1466 SWAP1 PUSH2 0x205D JUMP JUMPDEST PUSH1 0x40 MLOAD DUP1 SWAP2 SUB SWAP1 REVERT JUMPDEST PUSH1 0x0 DUP4 MLOAD SWAP1 POP PUSH1 0x0 PUSH1 0x6 DUP3 PUSH2 0x1484 SWAP2 SWAP1 PUSH2 0x207D JUMP JUMPDEST SWAP1 POP PUSH1 0x0 DUP2 PUSH8 0xFFFFFFFFFFFFFFFF DUP2 GT ISZERO PUSH2 0x14A2 JUMPI PUSH2 0x14A1 PUSH2 0x1957 JUMP JUMPDEST JUMPDEST PUSH1 0x40 MLOAD SWAP1 DUP1 DUP3 MSTORE DUP1 PUSH1 0x20 MUL PUSH1 0x20 ADD DUP3 ADD PUSH1 0x40 MSTORE DUP1 ISZERO PUSH2 0x14D0 JUMPI DUP2 PUSH1 0x20 ADD PUSH1 0x20 DUP3 MUL DUP1 CALLDATASIZE DUP4 CALLDATACOPY DUP1 DUP3 ADD SWAP2 POP POP SWAP1 POP JUMPDEST POP SWAP1 POP PUSH1 0x0 JUMPDEST DUP4 DUP2 LT ISZERO PUSH2 0x1755 JUMPI DUP7 DUP2 DUP2 MLOAD DUP2 LT PUSH2 0x14F1 JUMPI PUSH2 0x14F0 PUSH2 0x1CBF JUMP JUMPDEST JUMPDEST PUSH1 0x20 MUL PUSH1 0x20 ADD ADD MLOAD PUSH1 0x0 ADD MLOAD DUP3 PUSH1 0x0 PUSH1 0x6 DUP5 PUSH2 0x150D SWAP2 SWAP1 PUSH2 0x207D JUMP JUMPDEST PUSH2 0x1517 SWAP2 SWAP1 PUSH2 0x1D66 JUMP JUMPDEST DUP2 MLOAD DUP2 LT PUSH2 0x1528 JUMPI PUSH2 0x1527 PUSH2 0x1CBF JUMP JUMPDEST JUMPDEST PUSH1 0x20 MUL PUSH1 0x20 ADD ADD DUP2 DUP2 MSTORE POP POP DUP7 DUP2 DUP2 MLOAD DUP2 LT PUSH2 0x1547 JUMPI PUSH2 0x1546 PUSH2 0x1CBF JUMP JUMPDEST JUMPDEST PUSH1 0x20 MUL PUSH1 0x20 ADD ADD MLOAD PUSH1 0x20 ADD MLOAD DUP3 PUSH1 0x1 PUSH1 0x6 DUP5 PUSH2 0x1563 SWAP2 SWAP1 PUSH2 0x207D JUMP JUMPDEST PUSH2 0x156D SWAP2 SWAP1 PUSH2 0x1D66 JUMP JUMPDEST DUP2 MLOAD DUP2 LT PUSH2 0x157E JUMPI PUSH2 0x157D PUSH2 0x1CBF JUMP JUMPDEST JUMPDEST PUSH1 0x20 MUL PUSH1 0x20 ADD ADD DUP2 DUP2 MSTORE POP POP DUP6 DUP2 DUP2 MLOAD DUP2 LT PUSH2 0x159D JUMPI PUSH2 0x159C PUSH2 0x1CBF JUMP JUMPDEST JUMPDEST PUSH1 0x20 MUL PUSH1 0x20 ADD ADD MLOAD PUSH1 0x0 ADD MLOAD PUSH1 0x0 PUSH1 0x2 DUP2 LT PUSH2 0x15BC JUMPI PUSH2 0x15BB PUSH2 0x1CBF JUMP JUMPDEST JUMPDEST PUSH1 0x20 MUL ADD MLOAD DUP3 PUSH1 0x2 PUSH1 0x6 DUP5 PUSH2 0x15D1 SWAP2 SWAP1 PUSH2 0x207D JUMP JUMPDEST PUSH2 0x15DB SWAP2 SWAP1 PUSH2 0x1D66 JUMP JUMPDEST DUP2 MLOAD DUP2 LT PUSH2 0x15EC JUMPI PUSH2 0x15EB PUSH2 0x1CBF JUMP JUMPDEST JUMPDEST PUSH1 0x20 MUL PUSH1 0x20 ADD ADD DUP2 DUP2 MSTORE POP POP DUP6 DUP2 DUP2 MLOAD DUP2 LT PUSH2 0x160B JUMPI PUSH2 0x160A PUSH2 0x1CBF JUMP JUMPDEST JUMPDEST PUSH1 0x20 MUL PUSH1 0x20 ADD ADD MLOAD PUSH1 0x0 ADD MLOAD PUSH1 0x1 PUSH1 0x2 DUP2 LT PUSH2 0x162A JUMPI PUSH2 0x1629 PUSH2 0x1CBF JUMP JUMPDEST JUMPDEST PUSH1 0x20 MUL ADD MLOAD DUP3 PUSH1 0x3 PUSH1 0x6 DUP5 PUSH2 0x163F SWAP2 SWAP1 PUSH2 0x207D JUMP JUMPDEST PUSH2 0x1649 SWAP2 SWAP1 PUSH2 0x1D66 JUMP JUMPDEST DUP2 MLOAD DUP2 LT PUSH2 0x165A JUMPI PUSH2 0x1659 PUSH2 0x1CBF JUMP JUMPDEST JUMPDEST PUSH1 0x20 MUL PUSH1 0x20 ADD ADD DUP2 DUP2 MSTORE POP POP DUP6 DUP2 DUP2 MLOAD DUP2 LT PUSH2 0x1679 JUMPI PUSH2 0x1678 PUSH2 0x1CBF JUMP JUMPDEST JUMPDEST PUSH1 0x20 MUL PUSH1 0x20 ADD ADD MLOAD PUSH1 0x20 ADD MLOAD PUSH1 0x0 PUSH1 0x2 DUP2 LT PUSH2 0x1698 JUMPI PUSH2 0x1697 PUSH2 0x1CBF JUMP JUMPDEST JUMPDEST PUSH1 0x20 MUL ADD MLOAD DUP3 PUSH1 0x4 PUSH1 0x6 DUP5 PUSH2 0x16AD SWAP2 SWAP1 PUSH2 0x207D JUMP JUMPDEST PUSH2 0x16B7 SWAP2 SWAP1 PUSH2 0x1D66 JUMP JUMPDEST DUP2 MLOAD DUP2 LT PUSH2 0x16C8 JUMPI PUSH2 0x16C7 PUSH2 0x1CBF JUMP JUMPDEST JUMPDEST PUSH1 0x20 MUL PUSH1 0x20 ADD ADD DUP2 DUP2 MSTORE POP POP DUP6 DUP2 DUP2 MLOAD DUP2 LT PUSH2 0x16E7 JUMPI PUSH2 0x16E6 PUSH2 0x1CBF JUMP JUMPDEST JUMPDEST PUSH1 0x20 MUL PUSH1 0x20 ADD ADD MLOAD PUSH1 0x20 ADD MLOAD PUSH1 0x1 PUSH1 0x2 DUP2 LT PUSH2 0x1706 JUMPI PUSH2 0x1705 PUSH2 0x1CBF JUMP JUMPDEST JUMPDEST PUSH1 0x20 MUL ADD MLOAD DUP3 PUSH1 0x5 PUSH1 0x6 DUP5 PUSH2 0x171B SWAP2 SWAP1 PUSH2 0x207D JUMP JUMPDEST PUSH2 0x1725 SWAP2 SWAP1 PUSH2 0x1D66 JUMP JUMPDEST DUP2 MLOAD DUP2 LT PUSH2 0x1736 JUMPI PUSH2 0x1735 PUSH2 0x1CBF JUMP JUMPDEST JUMPDEST PUSH1 0x20 MUL PUSH1 0x20 ADD ADD DUP2 DUP2 MSTORE POP POP DUP1 DUP1 PUSH2 0x174D SWAP1 PUSH2 0x1D1D JUMP JUMPDEST SWAP2 POP POP PUSH2 0x14D6 JUMP JUMPDEST POP PUSH2 0x175E PUSH2 0x18EE JUMP JUMPDEST PUSH1 0x0 PUSH1 0x20 DUP3 PUSH1 0x20 DUP7 MUL PUSH1 0x20 DUP7 ADD PUSH1 0x8 PUSH2 0x7D0 GAS SUB STATICCALL SWAP1 POP DUP1 PUSH1 0x0 DUP2 EQ PUSH2 0x1783 JUMPI PUSH2 0x1785 JUMP JUMPDEST INVALID JUMPDEST POP DUP1 PUSH2 0x17C6 JUMPI PUSH1 0x40 MLOAD PUSH32 0x8C379A000000000000000000000000000000000000000000000000000000000 DUP2 MSTORE PUSH1 0x4 ADD PUSH2 0x17BD SWAP1 PUSH2 0x2123 JUMP JUMPDEST PUSH1 0x40 MLOAD DUP1 SWAP2 SUB SWAP1 REVERT JUMPDEST PUSH1 0x0 DUP3 PUSH1 0x0 PUSH1 0x1 DUP2 LT PUSH2 0x17DC JUMPI PUSH2 0x17DB PUSH2 0x1CBF JUMP JUMPDEST JUMPDEST PUSH1 0x20 MUL ADD MLOAD EQ ISZERO SWAP6 POP POP POP POP POP POP SWAP3 SWAP2 POP POP JUMP JUMPDEST PUSH1 0x40 MLOAD DUP1 PUSH1 0x60 ADD PUSH1 0x40 MSTORE DUP1 PUSH2 0x1803 PUSH2 0x186A JUMP JUMPDEST DUP2 MSTORE PUSH1 0x20 ADD PUSH2 0x1810 PUSH2 0x18C8 JUMP JUMPDEST DUP2 MSTORE PUSH1 0x20 ADD PUSH2 0x181D PUSH2 0x186A JUMP JUMPDEST DUP2 MSTORE POP SWAP1 JUMP JUMPDEST PUSH1 0x40 MLOAD DUP1 PUSH1 0xA0 ADD PUSH1 0x40 MSTORE DUP1 PUSH2 0x1836 PUSH2 0x186A JUMP JUMPDEST DUP2 MSTORE PUSH1 0x20 ADD PUSH2 0x1843 PUSH2 0x18C8 JUMP JUMPDEST DUP2 MSTORE PUSH1 0x20 ADD PUSH2 0x1850 PUSH2 0x18C8 JUMP JUMPDEST DUP2 MSTORE PUSH1 0x20 ADD PUSH2 0x185D PUSH2 0x18C8 JUMP JUMPDEST DUP2 MSTORE PUSH1 0x20 ADD PUSH1 0x60 DUP2 MSTORE POP SWAP1 JUMP JUMPDEST PUSH1 0x40 MLOAD DUP1 PUSH1 0x40 ADD PUSH1 0x40 MSTORE DUP1 PUSH1 0x0 DUP2 MSTORE PUSH1 0x20 ADD PUSH1 0x0 DUP2 MSTORE POP SWAP1 JUMP JUMPDEST PUSH1 0x40 MLOAD DUP1 PUSH1 0x60 ADD PUSH1 0x40 MSTORE DUP1 PUSH1 0x3 SWAP1 PUSH1 0x20 DUP3 MUL DUP1 CALLDATASIZE DUP4 CALLDATACOPY DUP1 DUP3 ADD SWAP2 POP POP SWAP1 POP POP SWAP1 JUMP JUMPDEST PUSH1 0x40 MLOAD DUP1 PUSH1 0x80 ADD PUSH1 0x40 MSTORE DUP1 PUSH1 0x4 SWAP1 PUSH1 0x20 DUP3 MUL DUP1 CALLDATASIZE DUP4 CALLDATACOPY DUP1 DUP3 ADD SWAP2 POP POP SWAP1 POP POP SWAP1 JUMP JUMPDEST PUSH1 0x40 MLOAD DUP1 PUSH1 0x40 ADD PUSH1 0x40 MSTORE DUP1 PUSH2 0x18DB PUSH2 0x1910 JUMP JUMPDEST DUP2 MSTORE PUSH1 0x20 ADD PUSH2 0x18E8 PUSH2 0x1910 JUMP JUMPDEST DUP2 MSTORE POP SWAP1 JUMP JUMPDEST PUSH1 0x40 MLOAD DUP1 PUSH1 0x20 ADD PUSH1 0x40 MSTORE DUP1 PUSH1 0x1 SWAP1 PUSH1 0x20 DUP3 MUL DUP1 CALLDATASIZE DUP4 CALLDATACOPY DUP1 DUP3 ADD SWAP2 POP POP SWAP1 POP POP SWAP1 JUMP JUMPDEST PUSH1 0x40 MLOAD DUP1 PUSH1 0x40 ADD PUSH1 0x40 MSTORE DUP1 PUSH1 0x2 SWAP1 PUSH1 0x20 DUP3 MUL DUP1 CALLDATASIZE DUP4 CALLDATACOPY DUP1 DUP3 ADD SWAP2 POP POP SWAP1 POP POP SWAP1 JUMP JUMPDEST PUSH1 0x0 PUSH1 0x40 MLOAD SWAP1 POP SWAP1 JUMP JUMPDEST PUSH1 0x0 DUP1 REVERT JUMPDEST PUSH1 0x0 DUP1 REVERT JUMPDEST PUSH1 0x0 PUSH1 0x1F NOT PUSH1 0x1F DUP4 ADD AND SWAP1 POP SWAP2 SWAP1 POP JUMP JUMPDEST PUSH32 0x4E487B7100000000000000000000000000000000000000000000000000000000 PUSH1 0x0 MSTORE PUSH1 0x41 PUSH1 0x4 MSTORE PUSH1 0x24 PUSH1 0x0 REVERT JUMPDEST PUSH2 0x198F DUP3 PUSH2 0x1946 JUMP JUMPDEST DUP2 ADD DUP2 DUP2 LT PUSH8 0xFFFFFFFFFFFFFFFF DUP3 GT OR ISZERO PUSH2 0x19AE JUMPI PUSH2 0x19AD PUSH2 0x1957 JUMP JUMPDEST JUMPDEST DUP1 PUSH1 0x40 MSTORE POP POP POP JUMP JUMPDEST PUSH1 0x0 PUSH2 0x19C1 PUSH2 0x1932 JUMP JUMPDEST SWAP1 POP PUSH2 0x19CD DUP3 DUP3 PUSH2 0x1986 JUMP JUMPDEST SWAP2 SWAP1 POP JUMP JUMPDEST PUSH1 0x0 PUSH8 0xFFFFFFFFFFFFFFFF DUP3 GT ISZERO PUSH2 0x19ED JUMPI PUSH2 0x19EC PUSH2 0x1957 JUMP JUMPDEST JUMPDEST PUSH1 0x20 DUP3 MUL SWAP1 POP SWAP2 SWAP1 POP JUMP JUMPDEST PUSH1 0x0 DUP1 REVERT JUMPDEST PUSH1 0x0 DUP2 SWAP1 POP SWAP2 SWAP1 POP JUMP JUMPDEST PUSH2 0x1A10 DUP2 PUSH2 0x19FD JUMP JUMPDEST DUP2 EQ PUSH2 0x1A1B JUMPI PUSH1 0x0 DUP1 REVERT JUMPDEST POP JUMP JUMPDEST PUSH1 0x0 DUP2 CALLDATALOAD SWAP1 POP PUSH2 0x1A2D DUP2 PUSH2 0x1A07 JUMP JUMPDEST SWAP3 SWAP2 POP POP JUMP JUMPDEST PUSH1 0x0 PUSH2 0x1A46 PUSH2 0x1A41 DUP5 PUSH2 0x19D2 JUMP JUMPDEST PUSH2 0x19B7 JUMP JUMPDEST SWAP1 POP DUP1 PUSH1 0x20 DUP5 MUL DUP4 ADD DUP6 DUP2 GT ISZERO PUSH2 0x1A60 JUMPI PUSH2 0x1A5F PUSH2 0x19F8 JUMP JUMPDEST JUMPDEST DUP4 JUMPDEST DUP2 DUP2 LT ISZERO PUSH2 0x1A89 JUMPI DUP1 PUSH2 0x1A75 DUP9 DUP3 PUSH2 0x1A1E JUMP JUMPDEST DUP5 MSTORE PUSH1 0x20 DUP5 ADD SWAP4 POP POP PUSH1 0x20 DUP2 ADD SWAP1 POP PUSH2 0x1A62 JUMP JUMPDEST POP POP POP SWAP4 SWAP3 POP POP POP JUMP JUMPDEST PUSH1 0x0 DUP3 PUSH1 0x1F DUP4 ADD SLT PUSH2 0x1AA8 JUMPI PUSH2 0x1AA7 PUSH2 0x1941 JUMP JUMPDEST JUMPDEST PUSH1 0x2 PUSH2 0x1AB5 DUP5 DUP3 DUP6 PUSH2 0x1A33 JUMP JUMPDEST SWAP2 POP POP SWAP3 SWAP2 POP POP JUMP JUMPDEST PUSH1 0x0 PUSH8 0xFFFFFFFFFFFFFFFF DUP3 GT ISZERO PUSH2 0x1AD9 JUMPI PUSH2 0x1AD8 PUSH2 0x1957 JUMP JUMPDEST JUMPDEST PUSH1 0x20 DUP3 MUL SWAP1 POP SWAP2 SWAP1 POP JUMP JUMPDEST PUSH1 0x0 PUSH2 0x1AF7 PUSH2 0x1AF2 DUP5 PUSH2 0x1ABE JUMP JUMPDEST PUSH2 0x19B7 JUMP JUMPDEST SWAP1 POP DUP1 PUSH1 0x40 DUP5 MUL DUP4 ADD DUP6 DUP2 GT ISZERO PUSH2 0x1B11 JUMPI PUSH2 0x1B10 PUSH2 0x19F8 JUMP JUMPDEST JUMPDEST DUP4 JUMPDEST DUP2 DUP2 LT ISZERO PUSH2 0x1B3A JUMPI DUP1 PUSH2 0x1B26 DUP9 DUP3 PUSH2 0x1A93 JUMP JUMPDEST DUP5 MSTORE PUSH1 0x20 DUP5 ADD SWAP4 POP POP PUSH1 0x40 DUP2 ADD SWAP1 POP PUSH2 0x1B13 JUMP JUMPDEST POP POP POP SWAP4 SWAP3 POP POP POP JUMP JUMPDEST PUSH1 0x0 DUP3 PUSH1 0x1F DUP4 ADD SLT PUSH2 0x1B59 JUMPI PUSH2 0x1B58 PUSH2 0x1941 JUMP JUMPDEST JUMPDEST PUSH1 0x2 PUSH2 0x1B66 DUP5 DUP3 DUP6 PUSH2 0x1AE4 JUMP JUMPDEST SWAP2 POP POP SWAP3 SWAP2 POP POP JUMP JUMPDEST PUSH1 0x0 PUSH8 0xFFFFFFFFFFFFFFFF DUP3 GT ISZERO PUSH2 0x1B8A JUMPI PUSH2 0x1B89 PUSH2 0x1957 JUMP JUMPDEST JUMPDEST PUSH1 0x20 DUP3 MUL SWAP1 POP SWAP2 SWAP1 POP JUMP JUMPDEST PUSH1 0x0 PUSH2 0x1BA8 PUSH2 0x1BA3 DUP5 PUSH2 0x1B6F JUMP JUMPDEST PUSH2 0x19B7 JUMP JUMPDEST SWAP1 POP DUP1 PUSH1 0x20 DUP5 MUL DUP4 ADD DUP6 DUP2 GT ISZERO PUSH2 0x1BC2 JUMPI PUSH2 0x1BC1 PUSH2 0x19F8 JUMP JUMPDEST JUMPDEST DUP4 JUMPDEST DUP2 DUP2 LT ISZERO PUSH2 0x1BEB JUMPI DUP1 PUSH2 0x1BD7 DUP9 DUP3 PUSH2 0x1A1E JUMP JUMPDEST DUP5 MSTORE PUSH1 0x20 DUP5 ADD SWAP4 POP POP PUSH1 0x20 DUP2 ADD SWAP1 POP PUSH2 0x1BC4 JUMP JUMPDEST POP POP POP SWAP4 SWAP3 POP POP POP JUMP JUMPDEST PUSH1 0x0 DUP3 PUSH1 0x1F DUP4 ADD SLT PUSH2 0x1C0A JUMPI PUSH2 0x1C09 PUSH2 0x1941 JUMP JUMPDEST JUMPDEST PUSH1 0x10 PUSH2 0x1C17 DUP5 DUP3 DUP6 PUSH2 0x1B95 JUMP JUMPDEST SWAP2 POP POP SWAP3 SWAP2 POP POP JUMP JUMPDEST PUSH1 0x0 DUP1 PUSH1 0x0 DUP1 PUSH2 0x300 DUP6 DUP8 SUB SLT ISZERO PUSH2 0x1C3B JUMPI PUSH2 0x1C3A PUSH2 0x193C JUMP JUMPDEST JUMPDEST PUSH1 0x0 PUSH2 0x1C49 DUP8 DUP3 DUP9 ADD PUSH2 0x1A93 JUMP JUMPDEST SWAP5 POP POP PUSH1 0x40 PUSH2 0x1C5A DUP8 DUP3 DUP9 ADD PUSH2 0x1B44 JUMP JUMPDEST SWAP4 POP POP PUSH1 0xC0 PUSH2 0x1C6B DUP8 DUP3 DUP9 ADD PUSH2 0x1A93 JUMP JUMPDEST SWAP3 POP POP PUSH2 0x100 PUSH2 0x1C7D DUP8 DUP3 DUP9 ADD PUSH2 0x1BF5 JUMP JUMPDEST SWAP2 POP POP SWAP3 SWAP6 SWAP2 SWAP5 POP SWAP3 POP JUMP JUMPDEST PUSH1 0x0 DUP2 ISZERO ISZERO SWAP1 POP SWAP2 SWAP1 POP JUMP JUMPDEST PUSH2 0x1C9E DUP2 PUSH2 0x1C89 JUMP JUMPDEST DUP3 MSTORE POP POP JUMP JUMPDEST PUSH1 0x0 PUSH1 0x20 DUP3 ADD SWAP1 POP PUSH2 0x1CB9 PUSH1 0x0 DUP4 ADD DUP5 PUSH2 0x1C95 JUMP JUMPDEST SWAP3 SWAP2 POP POP JUMP JUMPDEST PUSH32 0x4E487B7100000000000000000000000000000000000000000000000000000000 PUSH1 0x0 MSTORE PUSH1 0x32 PUSH1 0x4 MSTORE PUSH1 0x24 PUSH1 0x0 REVERT JUMPDEST PUSH32 0x4E487B7100000000000000000000000000000000000000000000000000000000 PUSH1 0x0 MSTORE PUSH1 0x11 PUSH1 0x4 MSTORE PUSH1 0x24 PUSH1 0x0 REVERT JUMPDEST PUSH1 0x0 PUSH2 0x1D28 DUP3 PUSH2 0x19FD JUMP JUMPDEST SWAP2 POP PUSH32 0xFFFFFFFFFFFFFFFFFFFFFFFFFFFFFFFFFFFFFFFFFFFFFFFFFFFFFFFFFFFFFFFF DUP3 EQ ISZERO PUSH2 0x1D5B JUMPI PUSH2 0x1D5A PUSH2 0x1CEE JUMP JUMPDEST JUMPDEST PUSH1 0x1 DUP3 ADD SWAP1 POP SWAP2 SWAP1 POP JUMP JUMPDEST PUSH1 0x0 PUSH2 0x1D71 DUP3 PUSH2 0x19FD JUMP JUMPDEST SWAP2 POP PUSH2 0x1D7C DUP4 PUSH2 0x19FD JUMP JUMPDEST SWAP3 POP DUP3 PUSH32 0xFFFFFFFFFFFFFFFFFFFFFFFFFFFFFFFFFFFFFFFFFFFFFFFFFFFFFFFFFFFFFFFF SUB DUP3 GT ISZERO PUSH2 0x1DB1 JUMPI PUSH2 0x1DB0 PUSH2 0x1CEE JUMP JUMPDEST JUMPDEST DUP3 DUP3 ADD SWAP1 POP SWAP3 SWAP2 POP POP JUMP JUMPDEST PUSH1 0x0 DUP3 DUP3 MSTORE PUSH1 0x20 DUP3 ADD SWAP1 POP SWAP3 SWAP2 POP POP JUMP JUMPDEST PUSH32 0x76657269666965722D6261642D696E7075740000000000000000000000000000 PUSH1 0x0 DUP3 ADD MSTORE POP JUMP JUMPDEST PUSH1 0x0 PUSH2 0x1E03 PUSH1 0x12 DUP4 PUSH2 0x1DBC JUMP JUMPDEST SWAP2 POP PUSH2 0x1E0E DUP3 PUSH2 0x1DCD JUMP JUMPDEST PUSH1 0x20 DUP3 ADD SWAP1 POP SWAP2 SWAP1 POP JUMP JUMPDEST PUSH1 0x0 PUSH1 0x20 DUP3 ADD SWAP1 POP DUP2 DUP2 SUB PUSH1 0x0 DUP4 ADD MSTORE PUSH2 0x1E32 DUP2 PUSH2 0x1DF6 JUMP JUMPDEST SWAP1 POP SWAP2 SWAP1 POP JUMP JUMPDEST PUSH32 0x76657269666965722D6774652D736E61726B2D7363616C61722D6669656C6400 PUSH1 0x0 DUP3 ADD MSTORE POP JUMP JUMPDEST PUSH1 0x0 PUSH2 0x1E6F PUSH1 0x1F DUP4 PUSH2 0x1DBC JUMP JUMPDEST SWAP2 POP PUSH2 0x1E7A DUP3 PUSH2 0x1E39 JUMP JUMPDEST PUSH1 0x20 DUP3 ADD SWAP1 POP SWAP2 SWAP1 POP JUMP JUMPDEST PUSH1 0x0 PUSH1 0x20 DUP3 ADD SWAP1 POP DUP2 DUP2 SUB PUSH1 0x0 DUP4 ADD MSTORE PUSH2 0x1E9E DUP2 PUSH2 0x1E62 JUMP JUMPDEST SWAP1 POP SWAP2 SWAP1 POP JUMP JUMPDEST PUSH32 0x70616972696E672D6D756C2D6661696C65640000000000000000000000000000 PUSH1 0x0 DUP3 ADD MSTORE POP JUMP JUMPDEST PUSH1 0x0 PUSH2 0x1EDB PUSH1 0x12 DUP4 PUSH2 0x1DBC JUMP JUMPDEST SWAP2 POP PUSH2 0x1EE6 DUP3 PUSH2 0x1EA5 JUMP JUMPDEST PUSH1 0x20 DUP3 ADD SWAP1 POP SWAP2 SWAP1 POP JUMP JUMPDEST PUSH1 0x0 PUSH1 0x20 DUP3 ADD SWAP1 POP DUP2 DUP2 SUB PUSH1 0x0 DUP4 ADD MSTORE PUSH2 0x1F0A DUP2 PUSH2 0x1ECE JUMP JUMPDEST SWAP1 POP SWAP2 SWAP1 POP JUMP JUMPDEST PUSH32 0x70616972696E672D6164642D6661696C65640000000000000000000000000000 PUSH1 0x0 DUP3 ADD MSTORE POP JUMP JUMPDEST PUSH1 0x0 PUSH2 0x1F47 PUSH1 0x12 DUP4 PUSH2 0x1DBC JUMP JUMPDEST SWAP2 POP PUSH2 0x1F52 DUP3 PUSH2 0x1F11 JUMP JUMPDEST PUSH1 0x20 DUP3 ADD SWAP1 POP SWAP2 SWAP1 POP JUMP JUMPDEST PUSH1 0x0 PUSH1 0x20 DUP3 ADD SWAP1 POP DUP2 DUP2 SUB PUSH1 0x0 DUP4 ADD MSTORE PUSH2 0x1F76 DUP2 PUSH2 0x1F3A JUMP JUMPDEST SWAP1 POP SWAP2 SWAP1 POP JUMP JUMPDEST PUSH32 0x4E487B7100000000000000000000000000000000000000000000000000000000 PUSH1 0x0 MSTORE PUSH1 0x12 PUSH1 0x4 MSTORE PUSH1 0x24 PUSH1 0x0 REVERT JUMPDEST PUSH1 0x0 PUSH2 0x1FB7 DUP3 PUSH2 0x19FD JUMP JUMPDEST SWAP2 POP PUSH2 0x1FC2 DUP4 PUSH2 0x19FD JUMP JUMPDEST SWAP3 POP DUP3 PUSH2 0x1FD2 JUMPI PUSH2 0x1FD1 PUSH2 0x1F7D JUMP JUMPDEST JUMPDEST DUP3 DUP3 MOD SWAP1 POP SWAP3 SWAP2 POP POP JUMP JUMPDEST PUSH1 0x0 PUSH2 0x1FE8 DUP3 PUSH2 0x19FD JUMP JUMPDEST SWAP2 POP PUSH2 0x1FF3 DUP4 PUSH2 0x19FD JUMP JUMPDEST SWAP3 POP DUP3 DUP3 LT ISZERO PUSH2 0x2006 JUMPI PUSH2 0x2005 PUSH2 0x1CEE JUMP JUMPDEST JUMPDEST DUP3 DUP3 SUB SWAP1 POP SWAP3 SWAP2 POP POP JUMP JUMPDEST PUSH32 0x70616972696E672D6C656E677468732D6661696C656400000000000000000000 PUSH1 0x0 DUP3 ADD MSTORE POP JUMP JUMPDEST PUSH1 0x0 PUSH2 0x2047 PUSH1 0x16 DUP4 PUSH2 0x1DBC JUMP JUMPDEST SWAP2 POP PUSH2 0x2052 DUP3 PUSH2 0x2011 JUMP JUMPDEST PUSH1 0x20 DUP3 ADD SWAP1 POP SWAP2 SWAP1 POP JUMP JUMPDEST PUSH1 0x0 PUSH1 0x20 DUP3 ADD SWAP1 POP DUP2 DUP2 SUB PUSH1 0x0 DUP4 ADD MSTORE PUSH2 0x2076 DUP2 PUSH2 0x203A JUMP JUMPDEST SWAP1 POP SWAP2 SWAP1 POP JUMP JUMPDEST PUSH1 0x0 PUSH2 0x2088 DUP3 PUSH2 0x19FD JUMP JUMPDEST SWAP2 POP PUSH2 0x2093 DUP4 PUSH2 0x19FD JUMP JUMPDEST SWAP3 POP DUP2 PUSH32 0xFFFFFFFFFFFFFFFFFFFFFFFFFFFFFFFFFFFFFFFFFFFFFFFFFFFFFFFFFFFFFFFF DIV DUP4 GT DUP3 ISZERO ISZERO AND ISZERO PUSH2 0x20CC JUMPI PUSH2 0x20CB PUSH2 0x1CEE JUMP JUMPDEST JUMPDEST DUP3 DUP3 MUL SWAP1 POP SWAP3 SWAP2 POP POP JUMP JUMPDEST PUSH32 0x70616972696E672D6F70636F64652D6661696C65640000000000000000000000 PUSH1 0x0 DUP3 ADD MSTORE POP JUMP JUMPDEST PUSH1 0x0 PUSH2 0x210D PUSH1 0x15 DUP4 PUSH2 0x1DBC JUMP JUMPDEST SWAP2 POP PUSH2 0x2118 DUP3 PUSH2 0x20D7 JUMP JUMPDEST PUSH1 0x20 DUP3 ADD SWAP1 POP SWAP2 SWAP1 POP JUMP JUMPDEST PUSH1 0x0 PUSH1 0x20 DUP3 ADD SWAP1 POP DUP2 DUP2 SUB PUSH1 0x0 DUP4 ADD MSTORE PUSH2 0x213C DUP2 PUSH2 0x2100 JUMP JUMPDEST SWAP1 POP SWAP2 SWAP1 POP JUMP INVALID LOG2 PUSH5 0x6970667358 0x22 SLT KECCAK256 LOG2 0x4B 0x28 SWAP6 DUP2 RETURNDATASIZE CALLER EXTCODECOPY SWAP15 SELFBALANCE PUSH14 0x3F1802F28CFD8E999779027417A5 0x4E 0x2A 0x4C PUSH9 0x2E33BC64736F6C6343 STOP ADDMOD MULMOD STOP CALLER "
        },
        "methodIdentifiers": {
          "verifyProof(uint256[2],uint256[2][2],uint256[2],uint256[16])": "c82febf5"
        }
      }
    }
  }
}